{
  "abi": [
    {
      "inputs": [],
      "stateMutability": "nonpayable",
      "type": "constructor"
    },
    {
      "anonymous": false,
      "inputs": [
        {
          "indexed": true,
          "internalType": "address",
          "name": "owner",
          "type": "address"
        },
        {
          "indexed": true,
          "internalType": "address",
          "name": "approved",
          "type": "address"
        },
        {
          "indexed": true,
          "internalType": "uint256",
          "name": "tokenId",
          "type": "uint256"
        }
      ],
      "name": "Approval",
      "type": "event"
    },
    {
      "anonymous": false,
      "inputs": [
        {
          "indexed": true,
          "internalType": "address",
          "name": "owner",
          "type": "address"
        },
        {
          "indexed": true,
          "internalType": "address",
          "name": "operator",
          "type": "address"
        },
        {
          "indexed": false,
          "internalType": "bool",
          "name": "approved",
          "type": "bool"
        }
      ],
      "name": "ApprovalForAll",
      "type": "event"
    },
    {
      "anonymous": false,
      "inputs": [
        {
          "indexed": true,
          "internalType": "address",
          "name": "from",
          "type": "address"
        },
        {
          "indexed": true,
          "internalType": "address",
          "name": "to",
          "type": "address"
        },
        {
          "indexed": true,
          "internalType": "uint256",
          "name": "tokenId",
          "type": "uint256"
        }
      ],
      "name": "Transfer",
      "type": "event"
    },
    {
      "inputs": [
        {
          "internalType": "address",
          "name": "to",
          "type": "address"
        },
        {
          "internalType": "uint256",
          "name": "tokenId",
          "type": "uint256"
        }
      ],
      "name": "approve",
      "outputs": [],
      "stateMutability": "nonpayable",
      "type": "function"
    },
    {
      "inputs": [
        {
          "internalType": "address",
          "name": "owner",
          "type": "address"
        }
      ],
      "name": "balanceOf",
      "outputs": [
        {
          "internalType": "uint256",
          "name": "",
          "type": "uint256"
        }
      ],
      "stateMutability": "view",
      "type": "function"
    },
    {
      "inputs": [
        {
          "internalType": "address",
          "name": "_cliente",
          "type": "address"
        },
        {
          "internalType": "string",
          "name": "_urlMetadadoToken",
          "type": "string"
        }
      ],
      "name": "geraToken",
      "outputs": [
        {
          "internalType": "uint256",
          "name": "",
          "type": "uint256"
        }
      ],
      "stateMutability": "nonpayable",
      "type": "function"
    },
    {
      "inputs": [
        {
          "internalType": "uint256",
          "name": "tokenId",
          "type": "uint256"
        }
      ],
      "name": "getApproved",
      "outputs": [
        {
          "internalType": "address",
          "name": "",
          "type": "address"
        }
      ],
      "stateMutability": "view",
      "type": "function"
    },
    {
      "inputs": [
        {
          "internalType": "address",
          "name": "owner",
          "type": "address"
        },
        {
          "internalType": "address",
          "name": "operator",
          "type": "address"
        }
      ],
      "name": "isApprovedForAll",
      "outputs": [
        {
          "internalType": "bool",
          "name": "",
          "type": "bool"
        }
      ],
      "stateMutability": "view",
      "type": "function"
    },
    {
      "inputs": [],
      "name": "name",
      "outputs": [
        {
          "internalType": "string",
          "name": "",
          "type": "string"
        }
      ],
      "stateMutability": "view",
      "type": "function"
    },
    {
      "inputs": [
        {
          "internalType": "uint256",
          "name": "tokenId",
          "type": "uint256"
        }
      ],
      "name": "ownerOf",
      "outputs": [
        {
          "internalType": "address",
          "name": "",
          "type": "address"
        }
      ],
      "stateMutability": "view",
      "type": "function"
    },
    {
      "inputs": [
        {
          "internalType": "address",
          "name": "from",
          "type": "address"
        },
        {
          "internalType": "address",
          "name": "to",
          "type": "address"
        },
        {
          "internalType": "uint256",
          "name": "tokenId",
          "type": "uint256"
        }
      ],
      "name": "safeTransferFrom",
      "outputs": [],
      "stateMutability": "nonpayable",
      "type": "function"
    },
    {
      "inputs": [
        {
          "internalType": "address",
          "name": "from",
          "type": "address"
        },
        {
          "internalType": "address",
          "name": "to",
          "type": "address"
        },
        {
          "internalType": "uint256",
          "name": "tokenId",
          "type": "uint256"
        },
        {
          "internalType": "bytes",
          "name": "data",
          "type": "bytes"
        }
      ],
      "name": "safeTransferFrom",
      "outputs": [],
      "stateMutability": "nonpayable",
      "type": "function"
    },
    {
      "inputs": [
        {
          "internalType": "address",
          "name": "operator",
          "type": "address"
        },
        {
          "internalType": "bool",
          "name": "approved",
          "type": "bool"
        }
      ],
      "name": "setApprovalForAll",
      "outputs": [],
      "stateMutability": "nonpayable",
      "type": "function"
    },
    {
      "inputs": [
        {
          "internalType": "bytes4",
          "name": "interfaceId",
          "type": "bytes4"
        }
      ],
      "name": "supportsInterface",
      "outputs": [
        {
          "internalType": "bool",
          "name": "",
          "type": "bool"
        }
      ],
      "stateMutability": "view",
      "type": "function"
    },
    {
      "inputs": [],
      "name": "symbol",
      "outputs": [
        {
          "internalType": "string",
          "name": "",
          "type": "string"
        }
      ],
      "stateMutability": "view",
      "type": "function"
    },
    {
      "inputs": [
        {
          "internalType": "uint256",
          "name": "tokenId",
          "type": "uint256"
        }
      ],
      "name": "tokenURI",
      "outputs": [
        {
          "internalType": "string",
          "name": "",
          "type": "string"
        }
      ],
      "stateMutability": "view",
      "type": "function"
    },
    {
      "inputs": [
        {
          "internalType": "address",
          "name": "from",
          "type": "address"
        },
        {
          "internalType": "address",
          "name": "to",
          "type": "address"
        },
        {
          "internalType": "uint256",
          "name": "tokenId",
          "type": "uint256"
        }
      ],
      "name": "transferFrom",
      "outputs": [],
      "stateMutability": "nonpayable",
      "type": "function"
    }
  ],
  "bytecode": {
    "object": "0x60806040523480156200001157600080fd5b506040518060400160405280600c81526020016b417274654a504f424e46547360a01b8152506040518060400160405280600881526020016710529413d093919560c21b815250816000908162000069919062000126565b50600162000078828262000126565b505050620001f2565b634e487b7160e01b600052604160045260246000fd5b600181811c90821680620000ac57607f821691505b602082108103620000cd57634e487b7160e01b600052602260045260246000fd5b50919050565b601f8211156200012157600081815260208120601f850160051c81016020861015620000fc5750805b601f850160051c820191505b818110156200011d5782815560010162000108565b5050505b505050565b81516001600160401b0381111562000142576200014262000081565b6200015a8162000153845462000097565b84620000d3565b602080601f831160018114620001925760008415620001795750858301515b600019600386901b1c1916600185901b1785556200011d565b600085815260208120601f198616915b82811015620001c357888601518255948401946001909101908401620001a2565b5085821015620001e25787850151600019600388901b60f8161c191681555b5050505050600190811b01905550565b61160b80620002026000396000f3fe608060405234801561001057600080fd5b50600436106100ea5760003560e01c806370a082311161008c578063a22cb46511610066578063a22cb465146101e1578063b88d4fde146101f4578063c87b56dd14610207578063e985e9c51461021a57600080fd5b806370a08231146101a5578063952ffa91146101c657806395d89b41146101d957600080fd5b8063095ea7b3116100c8578063095ea7b31461015757806323b872dd1461016c57806342842e0e1461017f5780636352211e1461019257600080fd5b806301ffc9a7146100ef57806306fdde0314610117578063081812fc1461012c575b600080fd5b6101026100fd366004611011565b610256565b60405190151581526020015b60405180910390f35b61011f6102a8565b60405161010e919061107e565b61013f61013a366004611091565b61033a565b6040516001600160a01b03909116815260200161010e565b61016a6101653660046110c6565b610361565b005b61016a61017a3660046110f0565b61047b565b61016a61018d3660046110f0565b6104ac565b61013f6101a0366004611091565b6104c7565b6101b86101b336600461112c565b610527565b60405190815260200161010e565b6101b86101d43660046111d3565b6105ad565b61011f6105e5565b61016a6101ef366004611235565b6105f4565b61016a610202366004611271565b610603565b61011f610215366004611091565b61063b565b6101026102283660046112ed565b6001600160a01b03918216600090815260056020908152604080832093909416825291909152205460ff1690565b60006001600160e01b031982166380ac58cd60e01b148061028757506001600160e01b03198216635b5e139f60e01b145b806102a257506301ffc9a760e01b6001600160e01b03198316145b92915050565b6060600080546102b790611320565b80601f01602080910402602001604051908101604052809291908181526020018280546102e390611320565b80156103305780601f1061030557610100808354040283529160200191610330565b820191906000526020600020905b81548152906001019060200180831161031357829003601f168201915b5050505050905090565b60006103458261074b565b506000908152600460205260409020546001600160a01b031690565b600061036c826104c7565b9050806001600160a01b0316836001600160a01b0316036103de5760405162461bcd60e51b815260206004820152602160248201527f4552433732313a20617070726f76616c20746f2063757272656e74206f776e656044820152603960f91b60648201526084015b60405180910390fd5b336001600160a01b03821614806103fa57506103fa8133610228565b61046c5760405162461bcd60e51b815260206004820152603d60248201527f4552433732313a20617070726f76652063616c6c6572206973206e6f7420746f60448201527f6b656e206f776e6572206f7220617070726f76656420666f7220616c6c00000060648201526084016103d5565b61047683836107ad565b505050565b610485338261081b565b6104a15760405162461bcd60e51b81526004016103d59061135a565b610476838383610899565b61047683838360405180602001604052806000815250610603565b6000818152600260205260408120546001600160a01b0316806102a25760405162461bcd60e51b8152602060048201526018602482015277115490cdcc8c4e881a5b9d985b1a59081d1bdad95b88125160421b60448201526064016103d5565b60006001600160a01b0382166105915760405162461bcd60e51b815260206004820152602960248201527f4552433732313a2061646472657373207a65726f206973206e6f7420612076616044820152683634b21037bbb732b960b91b60648201526084016103d5565b506001600160a01b031660009081526003602052604090205490565b60006105bd600780546001019055565b60006105c860075490565b90506105d484826109fd565b6105de8184610b88565b9392505050565b6060600180546102b790611320565b6105ff338383610c1b565b5050565b61060d338361081b565b6106295760405162461bcd60e51b81526004016103d59061135a565b61063584848484610ce9565b50505050565b60606106468261074b565b6000828152600660205260408120805461065f90611320565b80601f016020809104026020016040519081016040528092919081815260200182805461068b90611320565b80156106d85780601f106106ad576101008083540402835291602001916106d8565b820191906000526020600020905b8154815290600101906020018083116106bb57829003601f168201915b5050505050905060006106f660408051602081019091526000815290565b90508051600003610708575092915050565b81511561073a5780826040516020016107229291906113a7565b60405160208183030381529060405292505050919050565b61074384610d1c565b949350505050565b6000818152600260205260409020546001600160a01b03166107aa5760405162461bcd60e51b8152602060048201526018602482015277115490cdcc8c4e881a5b9d985b1a59081d1bdad95b88125160421b60448201526064016103d5565b50565b600081815260046020526040902080546001600160a01b0319166001600160a01b03841690811790915581906107e2826104c7565b6001600160a01b03167f8c5be1e5ebec7d5bd14f71427d1e84f3dd0314c0f7b2291e5b200ac8c7c3b92560405160405180910390a45050565b600080610827836104c7565b9050806001600160a01b0316846001600160a01b0316148061086e57506001600160a01b0380821660009081526005602090815260408083209388168352929052205460ff165b806107435750836001600160a01b03166108878461033a565b6001600160a01b031614949350505050565b826001600160a01b03166108ac826104c7565b6001600160a01b0316146108d25760405162461bcd60e51b81526004016103d5906113d6565b6001600160a01b0382166109345760405162461bcd60e51b8152602060048201526024808201527f4552433732313a207472616e7366657220746f20746865207a65726f206164646044820152637265737360e01b60648201526084016103d5565b826001600160a01b0316610947826104c7565b6001600160a01b03161461096d5760405162461bcd60e51b81526004016103d5906113d6565b600081815260046020908152604080832080546001600160a01b03199081169091556001600160a01b0387811680865260038552838620805460001901905590871680865283862080546001019055868652600290945282852080549092168417909155905184937fddf252ad1be2c89b69c2b068fc378daa952ba7f163c4a11628f55a4df523b3ef91a4505050565b6001600160a01b038216610a535760405162461bcd60e51b815260206004820181905260248201527f4552433732313a206d696e7420746f20746865207a65726f206164647265737360448201526064016103d5565b6000818152600260205260409020546001600160a01b031615610ab85760405162461bcd60e51b815260206004820152601c60248201527f4552433732313a20746f6b656e20616c7265616479206d696e7465640000000060448201526064016103d5565b6000818152600260205260409020546001600160a01b031615610b1d5760405162461bcd60e51b815260206004820152601c60248201527f4552433732313a20746f6b656e20616c7265616479206d696e7465640000000060448201526064016103d5565b6001600160a01b038216600081815260036020908152604080832080546001019055848352600290915280822080546001600160a01b0319168417905551839291907fddf252ad1be2c89b69c2b068fc378daa952ba7f163c4a11628f55a4df523b3ef908290a45050565b6000828152600260205260409020546001600160a01b0316610c035760405162461bcd60e51b815260206004820152602e60248201527f45524337323155524953746f726167653a2055524920736574206f66206e6f6e60448201526d32bc34b9ba32b73a103a37b5b2b760911b60648201526084016103d5565b60008281526006602052604090206104768282611469565b816001600160a01b0316836001600160a01b031603610c7c5760405162461bcd60e51b815260206004820152601960248201527f4552433732313a20617070726f766520746f2063616c6c65720000000000000060448201526064016103d5565b6001600160a01b03838116600081815260056020908152604080832094871680845294825291829020805460ff191686151590811790915591519182527f17307eab39ab6107e8899845ad3d59bd9653f200f220920489ca2b5937696c31910160405180910390a3505050565b610cf4848484610899565b610d0084848484610d8f565b6106355760405162461bcd60e51b81526004016103d590611529565b6060610d278261074b565b6000610d3e60408051602081019091526000815290565b90506000815111610d5e57604051806020016040528060008152506105de565b80610d6884610e90565b604051602001610d799291906113a7565b6040516020818303038152906040529392505050565b60006001600160a01b0384163b15610e8557604051630a85bd0160e11b81526001600160a01b0385169063150b7a0290610dd390339089908890889060040161157b565b6020604051808303816000875af1925050508015610e0e575060408051601f3d908101601f19168201909252610e0b918101906115b8565b60015b610e6b573d808015610e3c576040519150601f19603f3d011682016040523d82523d6000602084013e610e41565b606091505b508051600003610e635760405162461bcd60e51b81526004016103d590611529565b805181602001fd5b6001600160e01b031916630a85bd0160e11b149050610743565b506001949350505050565b60606000610e9d83610f23565b600101905060008167ffffffffffffffff811115610ebd57610ebd611147565b6040519080825280601f01601f191660200182016040528015610ee7576020820181803683370190505b5090508181016020015b600019016f181899199a1a9b1b9c1cb0b131b232b360811b600a86061a8153600a8504945084610ef157509392505050565b60008072184f03e93ff9f4daa797ed6e38ed64bf6a1f0160401b8310610f625772184f03e93ff9f4daa797ed6e38ed64bf6a1f0160401b830492506040015b6d04ee2d6d415b85acef81000000008310610f8e576d04ee2d6d415b85acef8100000000830492506020015b662386f26fc100008310610fac57662386f26fc10000830492506010015b6305f5e1008310610fc4576305f5e100830492506008015b6127108310610fd857612710830492506004015b60648310610fea576064830492506002015b600a83106102a25760010192915050565b6001600160e01b0319811681146107aa57600080fd5b60006020828403121561102357600080fd5b81356105de81610ffb565b60005b83811015611049578181015183820152602001611031565b50506000910152565b6000815180845261106a81602086016020860161102e565b601f01601f19169290920160200192915050565b6020815260006105de6020830184611052565b6000602082840312156110a357600080fd5b5035919050565b80356001600160a01b03811681146110c157600080fd5b919050565b600080604083850312156110d957600080fd5b6110e2836110aa565b946020939093013593505050565b60008060006060848603121561110557600080fd5b61110e846110aa565b925061111c602085016110aa565b9150604084013590509250925092565b60006020828403121561113e57600080fd5b6105de826110aa565b634e487b7160e01b600052604160045260246000fd5b600067ffffffffffffffff8084111561117857611178611147565b604051601f8501601f19908116603f011681019082821181831017156111a0576111a0611147565b816040528093508581528686860111156111b957600080fd5b858560208301376000602087830101525050509392505050565b600080604083850312156111e657600080fd5b6111ef836110aa565b9150602083013567ffffffffffffffff81111561120b57600080fd5b8301601f8101851361121c57600080fd5b61122b8582356020840161115d565b9150509250929050565b6000806040838503121561124857600080fd5b611251836110aa565b91506020830135801515811461126657600080fd5b809150509250929050565b6000806000806080858703121561128757600080fd5b611290856110aa565b935061129e602086016110aa565b925060408501359150606085013567ffffffffffffffff8111156112c157600080fd5b8501601f810187136112d257600080fd5b6112e18782356020840161115d565b91505092959194509250565b6000806040838503121561130057600080fd5b611309836110aa565b9150611317602084016110aa565b90509250929050565b600181811c9082168061133457607f821691505b60208210810361135457634e487b7160e01b600052602260045260246000fd5b50919050565b6020808252602d908201527f4552433732313a2063616c6c6572206973206e6f7420746f6b656e206f776e6560408201526c1c881bdc88185c1c1c9bdd9959609a1b606082015260800190565b600083516113b981846020880161102e565b8351908301906113cd81836020880161102e565b01949350505050565b60208082526025908201527f4552433732313a207472616e736665722066726f6d20696e636f72726563742060408201526437bbb732b960d91b606082015260800190565b601f82111561047657600081815260208120601f850160051c810160208610156114425750805b601f850160051c820191505b818110156114615782815560010161144e565b505050505050565b815167ffffffffffffffff81111561148357611483611147565b611497816114918454611320565b8461141b565b602080601f8311600181146114cc57600084156114b45750858301515b600019600386901b1c1916600185901b178555611461565b600085815260208120601f198616915b828110156114fb578886015182559484019460019091019084016114dc565b50858210156115195787850151600019600388901b60f8161c191681555b5050505050600190811b01905550565b60208082526032908201527f4552433732313a207472616e7366657220746f206e6f6e20455243373231526560408201527131b2b4bb32b91034b6b83632b6b2b73a32b960711b606082015260800190565b6001600160a01b03858116825284166020820152604081018390526080606082018190526000906115ae90830184611052565b9695505050505050565b6000602082840312156115ca57600080fd5b81516105de81610ffb56fea26469706673582212205f787b1ac3e29890274003a225dd44430caf43d118cc3646ab379a651eb55ae864736f6c63430008110033",
    "linkReferences": {}
  },
  "methodIdentifiers": {
    "approve(address,uint256)": "095ea7b3",
    "balanceOf(address)": "70a08231",
    "geraToken(address,string)": "952ffa91",
    "getApproved(uint256)": "081812fc",
    "isApprovedForAll(address,address)": "e985e9c5",
    "name()": "06fdde03",
    "ownerOf(uint256)": "6352211e",
    "safeTransferFrom(address,address,uint256)": "42842e0e",
    "safeTransferFrom(address,address,uint256,bytes)": "b88d4fde",
    "setApprovalForAll(address,bool)": "a22cb465",
    "supportsInterface(bytes4)": "01ffc9a7",
    "symbol()": "95d89b41",
    "tokenURI(uint256)": "c87b56dd",
    "transferFrom(address,address,uint256)": "23b872dd"
  },
  "id": 23
}